{
  "contractName": "ACL",
  "abi": [
    {
      "inputs": [],
      "payable": false,
      "stateMutability": "nonpayable",
      "type": "constructor"
    },
    {
      "anonymous": false,
      "inputs": [
        {
          "indexed": false,
          "internalType": "address",
          "name": "requester",
          "type": "address"
        },
        {
          "indexed": false,
          "internalType": "string",
          "name": "resource",
          "type": "string"
        },
        {
          "indexed": false,
          "internalType": "bool",
          "name": "read",
          "type": "bool"
        },
        {
          "indexed": false,
          "internalType": "bool",
          "name": "write",
          "type": "bool"
        },
        {
          "indexed": false,
          "internalType": "bool",
          "name": "exec",
          "type": "bool"
        }
      ],
      "name": "setAclInfo",
      "type": "event"
    },
    {
      "constant": true,
      "inputs": [],
      "name": "owner",
      "outputs": [
        {
          "internalType": "address",
          "name": "",
          "type": "address"
        }
      ],
      "payable": false,
      "stateMutability": "view",
      "type": "function"
    },
    {
      "constant": true,
      "inputs": [
        {
          "internalType": "uint256",
          "name": "",
          "type": "uint256"
        }
      ],
      "name": "reqAccts",
      "outputs": [
        {
          "internalType": "address",
          "name": "",
          "type": "address"
        }
      ],
      "payable": false,
      "stateMutability": "view",
      "type": "function"
    },
    {
      "constant": false,
      "inputs": [
        {
          "internalType": "address",
          "name": "_address",
          "type": "address"
        },
        {
          "internalType": "bool",
          "name": "_read",
          "type": "bool"
        },
        {
          "internalType": "bool",
          "name": "_write",
          "type": "bool"
        },
        {
          "internalType": "bool",
          "name": "_exec",
          "type": "bool"
        },
        {
          "internalType": "string",
          "name": "_resource",
          "type": "string"
        }
      ],
      "name": "setAclAtb",
      "outputs": [],
      "payable": false,
      "stateMutability": "nonpayable",
      "type": "function"
    },
    {
      "constant": true,
      "inputs": [],
      "name": "countList",
      "outputs": [
        {
          "internalType": "uint256",
          "name": "",
          "type": "uint256"
        }
      ],
      "payable": false,
      "stateMutability": "view",
      "type": "function"
    },
    {
      "constant": true,
      "inputs": [
        {
          "internalType": "address",
          "name": "ins",
          "type": "address"
        },
        {
          "internalType": "string",
          "name": "resource",
          "type": "string"
        }
      ],
      "name": "getAclAtb",
      "outputs": [
        {
          "internalType": "bool",
          "name": "",
          "type": "bool"
        },
        {
          "internalType": "bool",
          "name": "",
          "type": "bool"
        },
        {
          "internalType": "bool",
          "name": "",
          "type": "bool"
        }
      ],
      "payable": false,
      "stateMutability": "view",
      "type": "function"
    },
    {
      "constant": true,
      "inputs": [
        {
          "internalType": "address",
          "name": "req",
          "type": "address"
        }
      ],
      "name": "countRequtsForAddress",
      "outputs": [
        {
          "internalType": "uint256",
          "name": "",
          "type": "uint256"
        }
      ],
      "payable": false,
      "stateMutability": "view",
      "type": "function"
    },
    {
      "constant": true,
      "inputs": [
        {
          "internalType": "address",
          "name": "req",
          "type": "address"
        },
        {
          "internalType": "string",
          "name": "resource",
          "type": "string"
        }
      ],
      "name": "hasRightRead",
      "outputs": [
        {
          "internalType": "bool",
          "name": "",
          "type": "bool"
        }
      ],
      "payable": false,
      "stateMutability": "view",
      "type": "function"
    },
    {
      "constant": true,
      "inputs": [
        {
          "internalType": "address",
          "name": "req",
          "type": "address"
        },
        {
          "internalType": "string",
          "name": "resource",
          "type": "string"
        }
      ],
      "name": "hasRightWrite",
      "outputs": [
        {
          "internalType": "bool",
          "name": "",
          "type": "bool"
        }
      ],
      "payable": false,
      "stateMutability": "view",
      "type": "function"
    },
    {
      "constant": true,
      "inputs": [
        {
          "internalType": "address",
          "name": "req",
          "type": "address"
        },
        {
          "internalType": "string",
          "name": "resource",
          "type": "string"
        }
      ],
      "name": "hasRightExec",
      "outputs": [
        {
          "internalType": "bool",
          "name": "",
          "type": "bool"
        }
      ],
      "payable": false,
      "stateMutability": "view",
      "type": "function"
    },
    {
      "constant": true,
      "inputs": [
        {
          "internalType": "address",
          "name": "req",
          "type": "address"
        },
        {
          "internalType": "string",
          "name": "ms",
          "type": "string"
        },
        {
          "internalType": "string",
          "name": "resource",
          "type": "string"
        }
      ],
      "name": "hasRight",
      "outputs": [
        {
          "internalType": "bool",
          "name": "",
          "type": "bool"
        }
      ],
      "payable": false,
      "stateMutability": "view",
      "type": "function"
    }
  ],
  "bytecode": "0x608060405233600160006101000a81548173ffffffffffffffffffffffffffffffffffffffff021916908373ffffffffffffffffffffffffffffffffffffffff16021790555034801561005157600080fd5b50336000806101000a81548173ffffffffffffffffffffffffffffffffffffffff021916908373ffffffffffffffffffffffffffffffffffffffff16021790555033600160006101000a81548173ffffffffffffffffffffffffffffffffffffffff021916908373ffffffffffffffffffffffffffffffffffffffff160217905550611f55806100e26000396000f3fe608060405234801561001057600080fd5b506004361061009e5760003560e01c8063aefed69011610066578063aefed690146103e0578063b04282e4146104d3578063c29a61c6146105d2578063d2555692146106c5578063f62d0d38146107ce5761009e565b80632dafc642146100a357806355b27b5d146101965780638da5cb5b146101b45780639e218417146101fe578063aa97dc4814610388575b600080fd5b61017c600480360360408110156100b957600080fd5b81019080803573ffffffffffffffffffffffffffffffffffffffff169060200190929190803590602001906401000000008111156100f657600080fd5b82018360208201111561010857600080fd5b8035906020019184600183028401116401000000008311171561012a57600080fd5b91908080601f016020809104026020016040519081016040528093929190818152602001838380828437600081840152601f19601f82011690508083019250505050505050919291929050505061083c565b604051808215151515815260200191505060405180910390f35b61019e6108fd565b6040518082815260200191505060405180910390f35b6101bc61090a565b604051808273ffffffffffffffffffffffffffffffffffffffff1673ffffffffffffffffffffffffffffffffffffffff16815260200191505060405180910390f35b61036e6004803603606081101561021457600080fd5b81019080803573ffffffffffffffffffffffffffffffffffffffff1690602001909291908035906020019064010000000081111561025157600080fd5b82018360208201111561026357600080fd5b8035906020019184600183028401116401000000008311171561028557600080fd5b91908080601f016020809104026020016040519081016040528093929190818152602001838380828437600081840152601f19601f820116905080830192505050505050509192919290803590602001906401000000008111156102e857600080fd5b8201836020820111156102fa57600080fd5b8035906020019184600183028401116401000000008311171561031c57600080fd5b91908080601f016020809104026020016040519081016040528093929190818152602001838380828437600081840152601f19601f820116905080830192505050505050509192919290505050610930565b604051808215151515815260200191505060405180910390f35b6103ca6004803603602081101561039e57600080fd5b81019080803573ffffffffffffffffffffffffffffffffffffffff169060200190929190505050611693565b6040518082815260200191505060405180910390f35b6104b9600480360360408110156103f657600080fd5b81019080803573ffffffffffffffffffffffffffffffffffffffff1690602001909291908035906020019064010000000081111561043357600080fd5b82018360208201111561044557600080fd5b8035906020019184600183028401116401000000008311171561046757600080fd5b91908080601f016020809104026020016040519081016040528093929190818152602001838380828437600081840152601f19601f8201169050808301925050505050505091929192905050506116dc565b604051808215151515815260200191505060405180910390f35b6105d0600480360360a08110156104e957600080fd5b81019080803573ffffffffffffffffffffffffffffffffffffffff1690602001909291908035151590602001909291908035151590602001909291908035151590602001909291908035906020019064010000000081111561054a57600080fd5b82018360208201111561055c57600080fd5b8035906020019184600183028401116401000000008311171561057e57600080fd5b91908080601f016020809104026020016040519081016040528093929190818152602001838380828437600081840152601f19601f82011690508083019250505050505050919291929050505061179d565b005b6106ab600480360360408110156105e857600080fd5b81019080803573ffffffffffffffffffffffffffffffffffffffff1690602001909291908035906020019064010000000081111561062557600080fd5b82018360208201111561063757600080fd5b8035906020019184600183028401116401000000008311171561065957600080fd5b91908080601f016020809104026020016040519081016040528093929190818152602001838380828437600081840152601f19601f820116905080830192505050505050509192919290505050611bec565b604051808215151515815260200191505060405180910390f35b61079e600480360360408110156106db57600080fd5b81019080803573ffffffffffffffffffffffffffffffffffffffff1690602001909291908035906020019064010000000081111561071857600080fd5b82018360208201111561072a57600080fd5b8035906020019184600183028401116401000000008311171561074c57600080fd5b91908080601f016020809104026020016040519081016040528093929190818152602001838380828437600081840152601f19601f820116905080830192505050505050509192919290505050611cad565b60405180841515151581526020018315151515815260200182151515158152602001935050505060405180910390f35b6107fa600480360360208110156107e457600080fd5b8101908080359060200190929190505050611ee4565b604051808273ffffffffffffffffffffffffffffffffffffffff1673ffffffffffffffffffffffffffffffffffffffff16815260200191505060405180910390f35b6000600260008473ffffffffffffffffffffffffffffffffffffffff1673ffffffffffffffffffffffffffffffffffffffff168152602001908152602001600020826040518082805190602001908083835b602083106108b1578051825260208201915060208101905060208303925061088e565b6001836020036101000a038019825116818451168082178552505050505050905001915050908152602001604051809103902060000160009054906101000a900460ff16905092915050565b6000600380549050905090565b600160009054906101000a900473ffffffffffffffffffffffffffffffffffffffff1681565b6000606083905060006001905060008090505b82518110156109c2577f2c0000000000000000000000000000000000000000000000000000000000000083828151811061097957fe5b602001015160f81c60f81b7effffffffffffffffffffffffffffffffffffffffffffffffffffffffffffff191614156109b55781806001019250505b8080600101915050610943565b506003811415610ea45760405160200180807f726561642c77726974652c657865630000000000000000000000000000000000815250600f01905060405160208183030381529060405280519060200120856040516020018082805190602001908083835b60208310610a4a5780518252602082019150602081019050602083039250610a27565b6001836020036101000a038019825116818451168082178552505050505050905001915050604051602081830303815290604052805190602001201480610b47575060405160200180807f726561642c657865632c77726974650000000000000000000000000000000000815250600f01905060405160208183030381529060405280519060200120856040516020018082805190602001908083835b60208310610b0a5780518252602082019150602081019050602083039250610ae7565b6001836020036101000a03801982511681845116808217855250505050505090500191505060405160208183030381529060405280519060200120145b80610c08575060405160200180807f77726974652c726561642c657865630000000000000000000000000000000000815250600f01905060405160208183030381529060405280519060200120856040516020018082805190602001908083835b60208310610bcb5780518252602082019150602081019050602083039250610ba8565b6001836020036101000a03801982511681845116808217855250505050505090500191505060405160208183030381529060405280519060200120145b80610cc9575060405160200180807f77726974652c657865632c726561640000000000000000000000000000000000815250600f01905060405160208183030381529060405280519060200120856040516020018082805190602001908083835b60208310610c8c5780518252602082019150602081019050602083039250610c69565b6001836020036101000a03801982511681845116808217855250505050505090500191505060405160208183030381529060405280519060200120145b80610d8a575060405160200180807f657865632c726561642c77726974650000000000000000000000000000000000815250600f01905060405160208183030381529060405280519060200120856040516020018082805190602001908083835b60208310610d4d5780518252602082019150602081019050602083039250610d2a565b6001836020036101000a03801982511681845116808217855250505050505090500191505060405160208183030381529060405280519060200120145b80610e4b575060405160200180807f657865632c77726974652c726561640000000000000000000000000000000000815250600f01905060405160208183030381529060405280519060200120856040516020018082805190602001908083835b60208310610e0e5780518252602082019150602081019050602083039250610deb565b6001836020036101000a03801982511681845116808217855250505050505090500191505060405160208183030381529060405280519060200120145b15610e9957610e5a868561083c565b8015610e6c5750610e6b86856116dc565b5b8015610e7e5750610e7d8685611bec565b5b15610e8e5760019250505061168c565b60009250505061168c565b60009250505061168c565b60028114156113dd5760405160200180807f726561642c777269746500000000000000000000000000000000000000000000815250600a01905060405160208183030381529060405280519060200120856040516020018082805190602001908083835b60208310610f2b5780518252602082019150602081019050602083039250610f08565b6001836020036101000a038019825116818451168082178552505050505050905001915050604051602081830303815290604052805190602001201480611028575060405160200180807f77726974652c7265616400000000000000000000000000000000000000000000815250600a01905060405160208183030381529060405280519060200120856040516020018082805190602001908083835b60208310610feb5780518252602082019150602081019050602083039250610fc8565b6001836020036101000a03801982511681845116808217855250505050505090500191505060405160208183030381529060405280519060200120145b1561106457611037868561083c565b8015611049575061104886856116dc565b5b156110595760019250505061168c565b60009250505061168c565b60405160200180807f726561642c657865630000000000000000000000000000000000000000000000815250600901905060405160208183030381529060405280519060200120856040516020018082805190602001908083835b602083106110e257805182526020820191506020810190506020830392506110bf565b6001836020036101000a0380198251168184511680821785525050505050509050019150506040516020818303038152906040528051906020012014806111df575060405160200180807f657865632c726561640000000000000000000000000000000000000000000000815250600901905060405160208183030381529060405280519060200120856040516020018082805190602001908083835b602083106111a2578051825260208201915060208101905060208303925061117f565b6001836020036101000a03801982511681845116808217855250505050505090500191505060405160208183030381529060405280519060200120145b1561121b576111ee868561083c565b801561120057506111ff8685611bec565b5b156112105760019250505061168c565b60009250505061168c565b60405160200180807f77726974652c6578656300000000000000000000000000000000000000000000815250600a01905060405160208183030381529060405280519060200120856040516020018082805190602001908083835b602083106112995780518252602082019150602081019050602083039250611276565b6001836020036101000a038019825116818451168082178552505050505050905001915050604051602081830303815290604052805190602001201480611396575060405160200180807f657865632c777269746500000000000000000000000000000000000000000000815250600a01905060405160208183030381529060405280519060200120856040516020018082805190602001908083835b602083106113595780518252602082019150602081019050602083039250611336565b6001836020036101000a03801982511681845116808217855250505050505090500191505060405160208183030381529060405280519060200120145b156113d2576113a586856116dc565b80156113b757506113b68685611bec565b5b156113c75760019250505061168c565b60009250505061168c565b60009250505061168c565b60018114156116855760405160200180807f7265616400000000000000000000000000000000000000000000000000000000815250600401905060405160208183030381529060405280519060200120856040516020018082805190602001908083835b602083106114645780518252602082019150602081019050602083039250611441565b6001836020036101000a038019825116818451168082178552505050505050905001915050604051602081830303815290604052805190602001201480156114b257506114b1868561083c565b5b156114c25760019250505061168c565b60405160200180807f7772697465000000000000000000000000000000000000000000000000000000815250600501905060405160208183030381529060405280519060200120856040516020018082805190602001908083835b60208310611540578051825260208201915060208101905060208303925061151d565b6001836020036101000a0380198251168184511680821785525050505050509050019150506040516020818303038152906040528051906020012014801561158e575061158d86856116dc565b5b1561159e5760019250505061168c565b60405160200180807f6578656300000000000000000000000000000000000000000000000000000000815250600401905060405160208183030381529060405280519060200120856040516020018082805190602001908083835b6020831061161c57805182526020820191506020810190506020830392506115f9565b6001836020036101000a0380198251168184511680821785525050505050509050019150506040516020818303038152906040528051906020012014801561166a57506116698685611bec565b5b1561167a5760019250505061168c565b60009250505061168c565b6000925050505b9392505050565b6000600560008373ffffffffffffffffffffffffffffffffffffffff1673ffffffffffffffffffffffffffffffffffffffff168152602001908152602001600020549050919050565b6000600260008473ffffffffffffffffffffffffffffffffffffffff1673ffffffffffffffffffffffffffffffffffffffff168152602001908152602001600020826040518082805190602001908083835b60208310611751578051825260208201915060208101905060208303925061172e565b6001836020036101000a038019825116818451168082178552505050505050905001915050908152602001604051809103902060000160019054906101000a900460ff16905092915050565b6000809054906101000a900473ffffffffffffffffffffffffffffffffffffffff1673ffffffffffffffffffffffffffffffffffffffff163373ffffffffffffffffffffffffffffffffffffffff16146117f657600080fd5b83600260008773ffffffffffffffffffffffffffffffffffffffff1673ffffffffffffffffffffffffffffffffffffffff168152602001908152602001600020826040518082805190602001908083835b6020831061186a5780518252602082019150602081019050602083039250611847565b6001836020036101000a038019825116818451168082178552505050505050905001915050908152602001604051809103902060000160006101000a81548160ff02191690831515021790555082600260008773ffffffffffffffffffffffffffffffffffffffff1673ffffffffffffffffffffffffffffffffffffffff168152602001908152602001600020826040518082805190602001908083835b6020831061192b5780518252602082019150602081019050602083039250611908565b6001836020036101000a038019825116818451168082178552505050505050905001915050908152602001604051809103902060000160016101000a81548160ff02191690831515021790555081600260008773ffffffffffffffffffffffffffffffffffffffff1673ffffffffffffffffffffffffffffffffffffffff168152602001908152602001600020826040518082805190602001908083835b602083106119ec57805182526020820191506020810190506020830392506119c9565b6001836020036101000a038019825116818451168082178552505050505050905001915050908152602001604051809103902060000160026101000a81548160ff021916908315150217905550600560008673ffffffffffffffffffffffffffffffffffffffff1673ffffffffffffffffffffffffffffffffffffffff16815260200190815260200160002060008154809291906001019190505550600160038690806001815401808255809150509060018203906000526020600020016000909192909190916101000a81548173ffffffffffffffffffffffffffffffffffffffff021916908373ffffffffffffffffffffffffffffffffffffffff16021790555050507ff53abeccc777bbe4aaf8b69635c1d9ad964b5a08d9fd624b832eb4328f2c8d5c8582868686604051808673ffffffffffffffffffffffffffffffffffffffff1673ffffffffffffffffffffffffffffffffffffffff16815260200180602001851515151581526020018415151515815260200183151515158152602001828103825286818151815260200191508051906020019080838360005b83811015611ba7578082015181840152602081019050611b8c565b50505050905090810190601f168015611bd45780820380516001836020036101000a031916815260200191505b50965050505050505060405180910390a15050505050565b6000600260008473ffffffffffffffffffffffffffffffffffffffff1673ffffffffffffffffffffffffffffffffffffffff168152602001908152602001600020826040518082805190602001908083835b60208310611c615780518252602082019150602081019050602083039250611c3e565b6001836020036101000a038019825116818451168082178552505050505050905001915050908152602001604051809103902060000160029054906101000a900460ff16905092915050565b6000806000600260008673ffffffffffffffffffffffffffffffffffffffff1673ffffffffffffffffffffffffffffffffffffffff168152602001908152602001600020846040518082805190602001908083835b60208310611d255780518252602082019150602081019050602083039250611d02565b6001836020036101000a038019825116818451168082178552505050505050905001915050908152602001604051809103902060000160009054906101000a900460ff16600260008773ffffffffffffffffffffffffffffffffffffffff1673ffffffffffffffffffffffffffffffffffffffff168152602001908152602001600020856040518082805190602001908083835b60208310611ddc5780518252602082019150602081019050602083039250611db9565b6001836020036101000a038019825116818451168082178552505050505050905001915050908152602001604051809103902060000160019054906101000a900460ff16600260008873ffffffffffffffffffffffffffffffffffffffff1673ffffffffffffffffffffffffffffffffffffffff168152602001908152602001600020866040518082805190602001908083835b60208310611e935780518252602082019150602081019050602083039250611e70565b6001836020036101000a038019825116818451168082178552505050505050905001915050908152602001604051809103902060000160029054906101000a900460ff169250925092509250925092565b60038181548110611ef157fe5b906000526020600020016000915054906101000a900473ffffffffffffffffffffffffffffffffffffffff168156fea265627a7a723158200a70183b2ef0123ce2ceb3f5e0e8604a54a9fdd55b8c257dde004bd3e27ccb1964736f6c63430005100032",
  "source": "pragma solidity ^0.5.0;\n\ncontract Owned {\n    address owner;\n    \n    constructor() public {\n        owner = msg.sender;\n    }\n    \n   modifier onlyOwner {\n       require(msg.sender == owner);\n       _;\n   }\n}\n\ncontract ACL is Owned{\n    address public owner = msg.sender;\n  \n\n    struct AccessRight {\n        bool read;\n        bool write;\n        bool exec;\n    }\n    \n    event setAclInfo(\n        address requester,\n        string resource,\n        bool read,\n        bool write,\n        bool exec\n        );\n       \n \n    mapping (address=>mapping (string => AccessRight)) acl;\n    \n    address[] public reqAccts;\n    \n    mapping (address => string) requestAccts;\n  \n    mapping (address => uint256)  last_ACL_index;\n    \n    //AccessRight[] aclAttribute;\n\n    constructor() public {\n         owner= msg.sender;\n        \n    }\n\n    function setAclAtb(address _address,bool _read, bool _write, bool _exec,string memory _resource ) onlyOwner public {\n        \n   //var aclAttribute = acl[_address];\n         acl[_address][_resource].read=_read;\n         acl[_address][_resource].write=_write;\n         acl[_address][_resource].exec=_exec;\n        last_ACL_index[_address]++;\n        \n       reqAccts.push(_address) -1;\n        emit setAclInfo(_address,_resource,_read,_write,_exec);\n}\n    \n    function countList() view public returns (uint256){\n        return reqAccts.length;\n    }\n\n    function getAclAtb(address ins,string memory resource) view public returns (bool,bool,bool) {\n        return (acl[ins][resource].read, acl[ins][resource].write, acl[ins][resource].exec);\n     \n    }\n    \n    function countRequtsForAddress(address req) view public returns (uint) {\n        return last_ACL_index[req];\n    }\n    \n    \n  \n\n    function hasRightRead(address req,string memory resource) view public returns(bool){\n        return (acl[req][resource].read);\n\n    }\n    \n    \n    function hasRightWrite(address req,string memory resource) view public returns(bool){\n        return (acl[req][resource].write);\n\n    }\n    \n    \n    function hasRightExec(address req,string memory resource) view public returns(bool){\n        return (acl[req][resource].exec);\n\n    }\n    \n    function hasRight(address req, string memory ms,string memory resource) view public returns (bool){\n    \n        bytes memory m1= bytes (ms);\n        \n        uint nbr=1;\n      \n        for(uint i=0; i< m1.length; i++){\n            \n          \n            \n            if (m1[i] == \",\"){\n                nbr++;\n            }\n        }\n        \n        \n        if (nbr==3){\n            if( keccak256(abi.encodePacked(ms))== keccak256(abi.encodePacked(\"read,write,exec\"))||keccak256(abi.encodePacked(ms))==keccak256(abi.encodePacked(\"read,exec,write\"))||keccak256(abi.encodePacked(ms))==keccak256(abi.encodePacked(\"write,read,exec\"))||keccak256(abi.encodePacked(ms))==keccak256(abi.encodePacked(\"write,exec,read\"))||keccak256(abi.encodePacked(ms))==keccak256(abi.encodePacked(\"exec,read,write\"))||keccak256(abi.encodePacked(ms))==keccak256(abi.encodePacked(\"exec,write,read\"))){\n                \n                if(hasRightRead(req,resource) && hasRightWrite(req,resource) && hasRightExec(req,resource)){\n                    return true;\n                }\n                else return false;\n            }\n            \n            else return false;\n        }\n        \n        else if(nbr==2){\n            if( keccak256(abi.encodePacked(ms))==keccak256(abi.encodePacked(\"read,write\"))||keccak256(abi.encodePacked(ms))==keccak256(abi.encodePacked(\"write,read\"))){\n               if(hasRightRead(req,resource) && hasRightWrite(req,resource)){\n                    return true;\n                }\n                else return false;\n                \n            }\n            else if(keccak256(abi.encodePacked(ms))==keccak256(abi.encodePacked(\"read,exec\"))||keccak256(abi.encodePacked(ms))==keccak256(abi.encodePacked(\"exec,read\"))){\n                if(hasRightRead(req,resource) && hasRightExec(req,resource)){\n                    return true;\n                }\n                else return false;\n                   \n            }\n            \n            else if(keccak256(abi.encodePacked(ms))==keccak256(abi.encodePacked(\"write,exec\"))||keccak256(abi.encodePacked(ms))== keccak256(abi.encodePacked(\"exec,write\"))){\n                if(hasRightWrite(req,resource) && hasRightExec(req,resource)){\n                    return true;\n                }\n                else return false;\n                   \n            }\n            else return false;\n            \n        }\n        else if (nbr==1){\n            if(keccak256(abi.encodePacked(ms))==keccak256(abi.encodePacked(\"read\")) && hasRightRead(req,resource))\n            return true;\n            else if (keccak256(abi.encodePacked(ms))==keccak256(abi.encodePacked(\"write\")) && hasRightWrite(req,resource))\n            return true;\n            else if(keccak256(abi.encodePacked(ms))==keccak256(abi.encodePacked(\"exec\")) && hasRightExec(req,resource))\n            return true;\n            else return false;\n        }\n        \n        else return false;\n    \n    \n \n        \n    }\n\n   \n    \n}\n\n\n\n\n",
  "sourcePath": "/home/thinkpad/IBFT-Network/Application/contracts/ACL.sol",
  "compiler": {
    "name": "solc",
    "version": "0.5.16+commit.9c3226ce.Emscripten.clang"
  },
  "schemaVersion": "3.0.23",
  "updatedAt": "2020-05-31T11:05:51.667Z",
  "networkType": "ethereum",
  "devdoc": {
    "methods": {}
  },
  "userdoc": {
    "methods": {}
  }
}